{
  "_format": "hh-sol-artifact-1",
  "contractName": "Roulette",
  "sourceName": "contracts/Roulette.sol",
  "abi": [
    {
      "inputs": [
        {
          "internalType": "address",
          "name": "tokenAddress",
          "type": "address"
        }
      ],
      "stateMutability": "nonpayable",
      "type": "constructor"
    },
    {
      "inputs": [],
      "name": "ReentrancyGuardReentrantCall",
      "type": "error"
    },
    {
      "inputs": [
        {
          "internalType": "address",
          "name": "token",
          "type": "address"
        }
      ],
      "name": "SafeERC20FailedOperation",
      "type": "error"
    },
    {
      "anonymous": false,
      "inputs": [
        {
          "indexed": true,
          "internalType": "address",
          "name": "player",
          "type": "address"
        },
        {
          "indexed": false,
          "internalType": "uint256",
          "name": "sectorIndex",
          "type": "uint256"
        },
        {
          "indexed": false,
          "internalType": "uint256",
          "name": "multiplier",
          "type": "uint256"
        },
        {
          "indexed": false,
          "internalType": "uint256",
          "name": "payout",
          "type": "uint256"
        }
      ],
      "name": "SpinResult",
      "type": "event"
    },
    {
      "inputs": [
        {
          "internalType": "uint256",
          "name": "",
          "type": "uint256"
        }
      ],
      "name": "sectorMultipliers",
      "outputs": [
        {
          "internalType": "uint256",
          "name": "",
          "type": "uint256"
        }
      ],
      "stateMutability": "view",
      "type": "function"
    },
    {
      "inputs": [],
      "name": "sectorsCount",
      "outputs": [
        {
          "internalType": "uint256",
          "name": "",
          "type": "uint256"
        }
      ],
      "stateMutability": "view",
      "type": "function"
    },
    {
      "inputs": [
        {
          "internalType": "uint256",
          "name": "betAmount",
          "type": "uint256"
        }
      ],
      "name": "spin",
      "outputs": [],
      "stateMutability": "nonpayable",
      "type": "function"
    },
    {
      "inputs": [],
      "name": "token",
      "outputs": [
        {
          "internalType": "contract IERC20",
          "name": "",
          "type": "address"
        }
      ],
      "stateMutability": "view",
      "type": "function"
    }
  ],
  "bytecode": "0x60a060405234801561001057600080fd5b50604051610d37380380610d378339818101604052810190610032919061020f565b60016000819055508073ffffffffffffffffffffffffffffffffffffffff1660808173ffffffffffffffffffffffffffffffffffffffff168152505060005b600a8110156100b1576001600090806001815401808255809150506001900390600052602060002001600090919091909150558080600101915050610071565b5060005b60048110156100f3576001808060018154018082558091505060019003906000526020600020016000909190919091505580806001019150506100b5565b5060005b60038110156101375760016002908060018154018082558091505060019003906000526020600020016000909190919091505580806001019150506100f7565b5060005b600281101561017b57600160049080600181540180825580915050600190039060005260206000200160009091909190915055808060010191505061013b565b506001600890806001815401808255809150506001900390600052602060002001600090919091909150555061023c565b600080fd5b600073ffffffffffffffffffffffffffffffffffffffff82169050919050565b60006101dc826101b1565b9050919050565b6101ec816101d1565b81146101f757600080fd5b50565b600081519050610209816101e3565b92915050565b600060208284031215610225576102246101ac565b5b6000610233848285016101fa565b91505092915050565b608051610acb61026c6000396000818161015d015281816102280152818161030801526103b00152610acb6000f3fe608060405234801561001057600080fd5b506004361061004c5760003560e01c806373719b471461005157806378e1f3231461006f578063a5b6ea8f1461009f578063fc0c546a146100bb575b600080fd5b6100596100d9565b60405161006691906105de565b60405180910390f35b6100896004803603810190610084919061062a565b6100e6565b60405161009691906105de565b60405180910390f35b6100b960048036038101906100b4919061062a565b61010a565b005b6100c36103ae565b6040516100d091906106d6565b60405180910390f35b6000600180549050905090565b600181815481106100f657600080fd5b906000526020600020016000915090505481565b6101126103d2565b60008111610155576040517f08c379a000000000000000000000000000000000000000000000000000000000815260040161014c9061074e565b60405180910390fd5b6101a23330837f000000000000000000000000000000000000000000000000000000000000000073ffffffffffffffffffffffffffffffffffffffff16610418909392919063ffffffff16565b60004244336040516020016101b9939291906107e9565b6040516020818303038152906040528051906020012060001c90506000600180549050826101e79190610855565b90506000600182815481106101ff576101fe610886565b5b906000526020600020015490506000818561021a91906108e4565b9050600081111561034d57807f000000000000000000000000000000000000000000000000000000000000000073ffffffffffffffffffffffffffffffffffffffff166370a08231306040518263ffffffff1660e01b815260040161027f9190610935565b602060405180830381865afa15801561029c573d6000803e3d6000fd5b505050506040513d601f19601f820116820180604052508101906102c09190610965565b1015610301576040517f08c379a00000000000000000000000000000000000000000000000000000000081526004016102f8906109de565b60405180910390fd5b61034c33827f000000000000000000000000000000000000000000000000000000000000000073ffffffffffffffffffffffffffffffffffffffff1661049a9092919063ffffffff16565b5b3373ffffffffffffffffffffffffffffffffffffffff167ff825702cbc83605d7fababea4c41c307150aab23ae229acda80af9d946aa4292848484604051610397939291906109fe565b60405180910390a2505050506103ab610519565b50565b7f000000000000000000000000000000000000000000000000000000000000000081565b60026000540361040e576040517f3ee5aeb500000000000000000000000000000000000000000000000000000000815260040160405180910390fd5b6002600081905550565b610494848573ffffffffffffffffffffffffffffffffffffffff166323b872dd86868660405160240161044d93929190610a35565b604051602081830303815290604052915060e01b6020820180517bffffffffffffffffffffffffffffffffffffffffffffffffffffffff8381831617835250505050610523565b50505050565b610514838473ffffffffffffffffffffffffffffffffffffffff1663a9059cbb85856040516024016104cd929190610a6c565b604051602081830303815290604052915060e01b6020820180517bffffffffffffffffffffffffffffffffffffffffffffffffffffffff8381831617835250505050610523565b505050565b6001600081905550565b600080602060008451602086016000885af180610546576040513d6000823e3d81fd5b3d92506000519150506000821461056157600181141561057d565b60008473ffffffffffffffffffffffffffffffffffffffff163b145b156105bf57836040517f5274afe70000000000000000000000000000000000000000000000000000000081526004016105b69190610935565b60405180910390fd5b50505050565b6000819050919050565b6105d8816105c5565b82525050565b60006020820190506105f360008301846105cf565b92915050565b600080fd5b610607816105c5565b811461061257600080fd5b50565b600081359050610624816105fe565b92915050565b6000602082840312156106405761063f6105f9565b5b600061064e84828501610615565b91505092915050565b600073ffffffffffffffffffffffffffffffffffffffff82169050919050565b6000819050919050565b600061069c61069761069284610657565b610677565b610657565b9050919050565b60006106ae82610681565b9050919050565b60006106c0826106a3565b9050919050565b6106d0816106b5565b82525050565b60006020820190506106eb60008301846106c7565b92915050565b600082825260208201905092915050565b7f496e76616c696420626574000000000000000000000000000000000000000000600082015250565b6000610738600b836106f1565b915061074382610702565b602082019050919050565b600060208201905081810360008301526107678161072b565b9050919050565b6000819050919050565b610789610784826105c5565b61076e565b82525050565b600061079a82610657565b9050919050565b60008160601b9050919050565b60006107b9826107a1565b9050919050565b60006107cb826107ae565b9050919050565b6107e36107de8261078f565b6107c0565b82525050565b60006107f58286610778565b6020820191506108058285610778565b60208201915061081582846107d2565b601482019150819050949350505050565b7f4e487b7100000000000000000000000000000000000000000000000000000000600052601260045260246000fd5b6000610860826105c5565b915061086b836105c5565b92508261087b5761087a610826565b5b828206905092915050565b7f4e487b7100000000000000000000000000000000000000000000000000000000600052603260045260246000fd5b7f4e487b7100000000000000000000000000000000000000000000000000000000600052601160045260246000fd5b60006108ef826105c5565b91506108fa836105c5565b9250828202610908816105c5565b9150828204841483151761091f5761091e6108b5565b5b5092915050565b61092f8161078f565b82525050565b600060208201905061094a6000830184610926565b92915050565b60008151905061095f816105fe565b92915050565b60006020828403121561097b5761097a6105f9565b5b600061098984828501610950565b91505092915050565b7f436f6e74726163742068617320696e73756666696369656e7420746f6b656e73600082015250565b60006109c86020836106f1565b91506109d382610992565b602082019050919050565b600060208201905081810360008301526109f7816109bb565b9050919050565b6000606082019050610a1360008301866105cf565b610a2060208301856105cf565b610a2d60408301846105cf565b949350505050565b6000606082019050610a4a6000830186610926565b610a576020830185610926565b610a6460408301846105cf565b949350505050565b6000604082019050610a816000830185610926565b610a8e60208301846105cf565b939250505056fea26469706673582212200a53b2dde9d052f4ef84a588b5e991d7f2e107ea88aac164c71329cd847a1a9264736f6c634300081c0033",
  "linkReferences": {},
  "deployedLinkReferences": {}
}