{
  "_format": "hh-sol-artifact-1",
  "contractName": "Roulette",
  "sourceName": "contracts/Roulette.sol",
  "abi": [
    {
      "inputs": [
        {
          "internalType": "address",
          "name": "tokenAddress",
          "type": "address"
        }
      ],
      "stateMutability": "nonpayable",
      "type": "constructor"
    },
    {
      "inputs": [],
      "name": "ReentrancyGuardReentrantCall",
      "type": "error"
    },
    {
      "inputs": [
        {
          "internalType": "address",
          "name": "token",
          "type": "address"
        }
      ],
      "name": "SafeERC20FailedOperation",
      "type": "error"
    },
    {
      "anonymous": false,
      "inputs": [
        {
          "indexed": true,
          "internalType": "address",
          "name": "player",
          "type": "address"
        },
        {
          "indexed": false,
          "internalType": "uint256",
          "name": "sectorIndex",
          "type": "uint256"
        },
        {
          "indexed": false,
          "internalType": "uint256",
          "name": "multiplier",
          "type": "uint256"
        },
        {
          "indexed": false,
          "internalType": "uint256",
          "name": "payout",
          "type": "uint256"
        }
      ],
      "name": "SpinResult",
      "type": "event"
    },
    {
      "inputs": [
        {
          "internalType": "uint256",
          "name": "",
          "type": "uint256"
        }
      ],
      "name": "sectorMultipliers",
      "outputs": [
        {
          "internalType": "uint256",
          "name": "",
          "type": "uint256"
        }
      ],
      "stateMutability": "view",
      "type": "function"
    },
    {
      "inputs": [],
      "name": "sectorsCount",
      "outputs": [
        {
          "internalType": "uint256",
          "name": "",
          "type": "uint256"
        }
      ],
      "stateMutability": "view",
      "type": "function"
    },
    {
      "inputs": [
        {
          "internalType": "uint256",
          "name": "betAmount",
          "type": "uint256"
        }
      ],
      "name": "spin",
      "outputs": [],
      "stateMutability": "nonpayable",
      "type": "function"
    },
    {
      "inputs": [],
      "name": "token",
      "outputs": [
        {
          "internalType": "contract IERC20",
          "name": "",
          "type": "address"
        }
      ],
      "stateMutability": "view",
      "type": "function"
    }
  ],
  "bytecode": "0x60a060405234801561001057600080fd5b506040516111c23803806111c28339818101604052810190610032919061020f565b60016000819055508073ffffffffffffffffffffffffffffffffffffffff1660808173ffffffffffffffffffffffffffffffffffffffff168152505060005b600a8110156100b1576001600090806001815401808255809150506001900390600052602060002001600090919091909150558080600101915050610071565b5060005b60048110156100f3576001808060018154018082558091505060019003906000526020600020016000909190919091505580806001019150506100b5565b5060005b60038110156101375760016002908060018154018082558091505060019003906000526020600020016000909190919091505580806001019150506100f7565b5060005b600281101561017b57600160049080600181540180825580915050600190039060005260206000200160009091909190915055808060010191505061013b565b506001600890806001815401808255809150506001900390600052602060002001600090919091909150555061023c565b600080fd5b600073ffffffffffffffffffffffffffffffffffffffff82169050919050565b60006101dc826101b1565b9050919050565b6101ec816101d1565b81146101f757600080fd5b50565b600081519050610209816101e3565b92915050565b600060208284031215610225576102246101ac565b5b6000610233848285016101fa565b91505092915050565b608051610f5661026c6000396000818161015d015281816102280152818161030801526104ea0152610f566000f3fe608060405234801561001057600080fd5b506004361061004c5760003560e01c806373719b471461005157806378e1f3231461006f578063a5b6ea8f1461009f578063fc0c546a146100bb575b600080fd5b6100596100d9565b6040516100669190610939565b60405180910390f35b61008960048036038101906100849190610985565b6100e6565b6040516100969190610939565b60405180910390f35b6100b960048036038101906100b49190610985565b61010a565b005b6100c36104e8565b6040516100d09190610a31565b60405180910390f35b6000600180549050905090565b600181815481106100f657600080fd5b906000526020600020016000915090505481565b61011261050c565b60008111610155576040517f08c379a000000000000000000000000000000000000000000000000000000000815260040161014c90610aa9565b60405180910390fd5b6101a23330837f000000000000000000000000000000000000000000000000000000000000000073ffffffffffffffffffffffffffffffffffffffff16610552909392919063ffffffff16565b60004244336040516020016101b993929190610b44565b6040516020818303038152906040528051906020012060001c90506000600180549050826101e79190610bb0565b90506000600182815481106101ff576101fe610be1565b5b906000526020600020015490506000818561021a9190610c3f565b9050600081111561034d57807f000000000000000000000000000000000000000000000000000000000000000073ffffffffffffffffffffffffffffffffffffffff166370a08231306040518263ffffffff1660e01b815260040161027f9190610c90565b602060405180830381865afa15801561029c573d6000803e3d6000fd5b505050506040513d601f19601f820116820180604052508101906102c09190610cc0565b1015610301576040517f08c379a00000000000000000000000000000000000000000000000000000000081526004016102f890610d39565b60405180910390fd5b61034c33827f000000000000000000000000000000000000000000000000000000000000000073ffffffffffffffffffffffffffffffffffffffff166105d49092919063ffffffff16565b5b61038b6040518060400160405280601281526020017f3d3d3d205350494e204445425547203d3d3d0000000000000000000000000000815250610653565b6103ca6040518060400160405280600781526020017f506c617965723a00000000000000000000000000000000000000000000000000815250336106ec565b6104096040518060400160405280600d81526020017f52616e646f6d20696e6465783a0000000000000000000000000000000000000081525084610788565b6104486040518060400160405280600b81526020017f4d756c7469706c6965723a00000000000000000000000000000000000000000081525083610788565b6104876040518060400160405280600781526020017f5061796f75743a0000000000000000000000000000000000000000000000000081525082610788565b3373ffffffffffffffffffffffffffffffffffffffff167ff825702cbc83605d7fababea4c41c307150aab23ae229acda80af9d946aa42928484846040516104d193929190610d59565b60405180910390a2505050506104e5610824565b50565b7f000000000000000000000000000000000000000000000000000000000000000081565b600260005403610548576040517f3ee5aeb500000000000000000000000000000000000000000000000000000000815260040160405180910390fd5b6002600081905550565b6105ce848573ffffffffffffffffffffffffffffffffffffffff166323b872dd86868660405160240161058793929190610d90565b604051602081830303815290604052915060e01b6020820180517bffffffffffffffffffffffffffffffffffffffffffffffffffffffff838183161783525050505061082e565b50505050565b61064e838473ffffffffffffffffffffffffffffffffffffffff1663a9059cbb8585604051602401610607929190610dc7565b604051602081830303815290604052915060e01b6020820180517bffffffffffffffffffffffffffffffffffffffffffffffffffffffff838183161783525050505061082e565b505050565b6106e9816040516024016106679190610e6f565b6040516020818303038152906040527f41304fac000000000000000000000000000000000000000000000000000000007bffffffffffffffffffffffffffffffffffffffffffffffffffffffff19166020820180517bffffffffffffffffffffffffffffffffffffffffffffffffffffffff83818316178352505050506108d0565b50565b6107848282604051602401610702929190610e91565b6040516020818303038152906040527f319af333000000000000000000000000000000000000000000000000000000007bffffffffffffffffffffffffffffffffffffffffffffffffffffffff19166020820180517bffffffffffffffffffffffffffffffffffffffffffffffffffffffff83818316178352505050506108d0565b5050565b610820828260405160240161079e929190610ec1565b6040516020818303038152906040527fb60e72cc000000000000000000000000000000000000000000000000000000007bffffffffffffffffffffffffffffffffffffffffffffffffffffffff19166020820180517bffffffffffffffffffffffffffffffffffffffffffffffffffffffff83818316178352505050506108d0565b5050565b6001600081905550565b600080602060008451602086016000885af180610851576040513d6000823e3d81fd5b3d92506000519150506000821461086c576001811415610888565b60008473ffffffffffffffffffffffffffffffffffffffff163b145b156108ca57836040517f5274afe70000000000000000000000000000000000000000000000000000000081526004016108c19190610c90565b60405180910390fd5b50505050565b6108e7816108df6108ea61090b565b63ffffffff16565b50565b60006a636f6e736f6c652e6c6f679050600080835160208501845afa505050565b610916819050919050565b61091e610ef1565b565b6000819050919050565b61093381610920565b82525050565b600060208201905061094e600083018461092a565b92915050565b600080fd5b61096281610920565b811461096d57600080fd5b50565b60008135905061097f81610959565b92915050565b60006020828403121561099b5761099a610954565b5b60006109a984828501610970565b91505092915050565b600073ffffffffffffffffffffffffffffffffffffffff82169050919050565b6000819050919050565b60006109f76109f26109ed846109b2565b6109d2565b6109b2565b9050919050565b6000610a09826109dc565b9050919050565b6000610a1b826109fe565b9050919050565b610a2b81610a10565b82525050565b6000602082019050610a466000830184610a22565b92915050565b600082825260208201905092915050565b7f496e76616c696420626574000000000000000000000000000000000000000000600082015250565b6000610a93600b83610a4c565b9150610a9e82610a5d565b602082019050919050565b60006020820190508181036000830152610ac281610a86565b9050919050565b6000819050919050565b610ae4610adf82610920565b610ac9565b82525050565b6000610af5826109b2565b9050919050565b60008160601b9050919050565b6000610b1482610afc565b9050919050565b6000610b2682610b09565b9050919050565b610b3e610b3982610aea565b610b1b565b82525050565b6000610b508286610ad3565b602082019150610b608285610ad3565b602082019150610b708284610b2d565b601482019150819050949350505050565b7f4e487b7100000000000000000000000000000000000000000000000000000000600052601260045260246000fd5b6000610bbb82610920565b9150610bc683610920565b925082610bd657610bd5610b81565b5b828206905092915050565b7f4e487b7100000000000000000000000000000000000000000000000000000000600052603260045260246000fd5b7f4e487b7100000000000000000000000000000000000000000000000000000000600052601160045260246000fd5b6000610c4a82610920565b9150610c5583610920565b9250828202610c6381610920565b91508282048414831517610c7a57610c79610c10565b5b5092915050565b610c8a81610aea565b82525050565b6000602082019050610ca56000830184610c81565b92915050565b600081519050610cba81610959565b92915050565b600060208284031215610cd657610cd5610954565b5b6000610ce484828501610cab565b91505092915050565b7f436f6e74726163742068617320696e73756666696369656e7420746f6b656e73600082015250565b6000610d23602083610a4c565b9150610d2e82610ced565b602082019050919050565b60006020820190508181036000830152610d5281610d16565b9050919050565b6000606082019050610d6e600083018661092a565b610d7b602083018561092a565b610d88604083018461092a565b949350505050565b6000606082019050610da56000830186610c81565b610db26020830185610c81565b610dbf604083018461092a565b949350505050565b6000604082019050610ddc6000830185610c81565b610de9602083018461092a565b9392505050565b600081519050919050565b60005b83811015610e19578082015181840152602081019050610dfe565b60008484015250505050565b6000601f19601f8301169050919050565b6000610e4182610df0565b610e4b8185610a4c565b9350610e5b818560208601610dfb565b610e6481610e25565b840191505092915050565b60006020820190508181036000830152610e898184610e36565b905092915050565b60006040820190508181036000830152610eab8185610e36565b9050610eba6020830184610c81565b9392505050565b60006040820190508181036000830152610edb8185610e36565b9050610eea602083018461092a565b9392505050565b7f4e487b7100000000000000000000000000000000000000000000000000000000600052605160045260246000fdfea2646970667358221220ecb76b3eb9f1e6625d6e603e4b8b3b8d04f3e8e4b0b07abed3625b5d710fd9ce64736f6c634300081c0033",
  "linkReferences": {},
  "deployedLinkReferences": {}
}