{
  "_format": "hh-sol-artifact-1",
  "contractName": "RouletteToken",
  "sourceName": "contracts/RouletteToken.sol",
  "abi": [
    {
      "inputs": [],
      "stateMutability": "nonpayable",
      "type": "constructor"
    },
    {
      "inputs": [
        {
          "internalType": "address",
          "name": "spender",
          "type": "address"
        },
        {
          "internalType": "uint256",
          "name": "allowance",
          "type": "uint256"
        },
        {
          "internalType": "uint256",
          "name": "needed",
          "type": "uint256"
        }
      ],
      "name": "ERC20InsufficientAllowance",
      "type": "error"
    },
    {
      "inputs": [
        {
          "internalType": "address",
          "name": "sender",
          "type": "address"
        },
        {
          "internalType": "uint256",
          "name": "balance",
          "type": "uint256"
        },
        {
          "internalType": "uint256",
          "name": "needed",
          "type": "uint256"
        }
      ],
      "name": "ERC20InsufficientBalance",
      "type": "error"
    },
    {
      "inputs": [
        {
          "internalType": "address",
          "name": "approver",
          "type": "address"
        }
      ],
      "name": "ERC20InvalidApprover",
      "type": "error"
    },
    {
      "inputs": [
        {
          "internalType": "address",
          "name": "receiver",
          "type": "address"
        }
      ],
      "name": "ERC20InvalidReceiver",
      "type": "error"
    },
    {
      "inputs": [
        {
          "internalType": "address",
          "name": "sender",
          "type": "address"
        }
      ],
      "name": "ERC20InvalidSender",
      "type": "error"
    },
    {
      "inputs": [
        {
          "internalType": "address",
          "name": "spender",
          "type": "address"
        }
      ],
      "name": "ERC20InvalidSpender",
      "type": "error"
    },
    {
      "inputs": [
        {
          "internalType": "address",
          "name": "owner",
          "type": "address"
        }
      ],
      "name": "OwnableInvalidOwner",
      "type": "error"
    },
    {
      "inputs": [
        {
          "internalType": "address",
          "name": "account",
          "type": "address"
        }
      ],
      "name": "OwnableUnauthorizedAccount",
      "type": "error"
    },
    {
      "anonymous": false,
      "inputs": [
        {
          "indexed": true,
          "internalType": "address",
          "name": "owner",
          "type": "address"
        },
        {
          "indexed": true,
          "internalType": "address",
          "name": "spender",
          "type": "address"
        },
        {
          "indexed": false,
          "internalType": "uint256",
          "name": "value",
          "type": "uint256"
        }
      ],
      "name": "Approval",
      "type": "event"
    },
    {
      "anonymous": false,
      "inputs": [
        {
          "indexed": true,
          "internalType": "address",
          "name": "previousOwner",
          "type": "address"
        },
        {
          "indexed": true,
          "internalType": "address",
          "name": "newOwner",
          "type": "address"
        }
      ],
      "name": "OwnershipTransferred",
      "type": "event"
    },
    {
      "anonymous": false,
      "inputs": [
        {
          "indexed": true,
          "internalType": "address",
          "name": "from",
          "type": "address"
        },
        {
          "indexed": true,
          "internalType": "address",
          "name": "to",
          "type": "address"
        },
        {
          "indexed": false,
          "internalType": "uint256",
          "name": "value",
          "type": "uint256"
        }
      ],
      "name": "Transfer",
      "type": "event"
    },
    {
      "inputs": [],
      "name": "PRICE_PER_TOKEN",
      "outputs": [
        {
          "internalType": "uint256",
          "name": "",
          "type": "uint256"
        }
      ],
      "stateMutability": "view",
      "type": "function"
    },
    {
      "inputs": [
        {
          "internalType": "address",
          "name": "owner",
          "type": "address"
        },
        {
          "internalType": "address",
          "name": "spender",
          "type": "address"
        }
      ],
      "name": "allowance",
      "outputs": [
        {
          "internalType": "uint256",
          "name": "",
          "type": "uint256"
        }
      ],
      "stateMutability": "view",
      "type": "function"
    },
    {
      "inputs": [
        {
          "internalType": "address",
          "name": "spender",
          "type": "address"
        },
        {
          "internalType": "uint256",
          "name": "value",
          "type": "uint256"
        }
      ],
      "name": "approve",
      "outputs": [
        {
          "internalType": "bool",
          "name": "",
          "type": "bool"
        }
      ],
      "stateMutability": "nonpayable",
      "type": "function"
    },
    {
      "inputs": [
        {
          "internalType": "address",
          "name": "account",
          "type": "address"
        }
      ],
      "name": "balanceOf",
      "outputs": [
        {
          "internalType": "uint256",
          "name": "",
          "type": "uint256"
        }
      ],
      "stateMutability": "view",
      "type": "function"
    },
    {
      "inputs": [
        {
          "internalType": "uint256",
          "name": "amount",
          "type": "uint256"
        }
      ],
      "name": "buyTokens",
      "outputs": [],
      "stateMutability": "payable",
      "type": "function"
    },
    {
      "inputs": [],
      "name": "decimals",
      "outputs": [
        {
          "internalType": "uint8",
          "name": "",
          "type": "uint8"
        }
      ],
      "stateMutability": "view",
      "type": "function"
    },
    {
      "inputs": [],
      "name": "name",
      "outputs": [
        {
          "internalType": "string",
          "name": "",
          "type": "string"
        }
      ],
      "stateMutability": "view",
      "type": "function"
    },
    {
      "inputs": [],
      "name": "owner",
      "outputs": [
        {
          "internalType": "address",
          "name": "",
          "type": "address"
        }
      ],
      "stateMutability": "view",
      "type": "function"
    },
    {
      "inputs": [],
      "name": "renounceOwnership",
      "outputs": [],
      "stateMutability": "nonpayable",
      "type": "function"
    },
    {
      "inputs": [],
      "name": "symbol",
      "outputs": [
        {
          "internalType": "string",
          "name": "",
          "type": "string"
        }
      ],
      "stateMutability": "view",
      "type": "function"
    },
    {
      "inputs": [],
      "name": "totalSupply",
      "outputs": [
        {
          "internalType": "uint256",
          "name": "",
          "type": "uint256"
        }
      ],
      "stateMutability": "view",
      "type": "function"
    },
    {
      "inputs": [
        {
          "internalType": "address",
          "name": "to",
          "type": "address"
        },
        {
          "internalType": "uint256",
          "name": "value",
          "type": "uint256"
        }
      ],
      "name": "transfer",
      "outputs": [
        {
          "internalType": "bool",
          "name": "",
          "type": "bool"
        }
      ],
      "stateMutability": "nonpayable",
      "type": "function"
    },
    {
      "inputs": [
        {
          "internalType": "address",
          "name": "from",
          "type": "address"
        },
        {
          "internalType": "address",
          "name": "to",
          "type": "address"
        },
        {
          "internalType": "uint256",
          "name": "value",
          "type": "uint256"
        }
      ],
      "name": "transferFrom",
      "outputs": [
        {
          "internalType": "bool",
          "name": "",
          "type": "bool"
        }
      ],
      "stateMutability": "nonpayable",
      "type": "function"
    },
    {
      "inputs": [
        {
          "internalType": "address",
          "name": "newOwner",
          "type": "address"
        }
      ],
      "name": "transferOwnership",
      "outputs": [],
      "stateMutability": "nonpayable",
      "type": "function"
    },
    {
      "inputs": [],
      "name": "withdrawETH",
      "outputs": [],
      "stateMutability": "nonpayable",
      "type": "function"
    }
  ],
  "bytecode": "0x608060405234801561001057600080fd5b50336040518060400160405280600e81526020017f526f756c6574746520546f6b656e0000000000000000000000000000000000008152506040518060400160405280600381526020017f524c540000000000000000000000000000000000000000000000000000000000815250816003908161008d919061072a565b50806004908161009d919061072a565b505050600073ffffffffffffffffffffffffffffffffffffffff168173ffffffffffffffffffffffffffffffffffffffff16036101125760006040517f1e4fbdf7000000000000000000000000000000000000000000000000000000008152600401610109919061083d565b60405180910390fd5b6101218161015e60201b60201c565b506101593361013461022460201b60201c565b600a61014091906109c7565b620f424061014e9190610a12565b61022d60201b60201c565b610ae9565b6000600560009054906101000a900473ffffffffffffffffffffffffffffffffffffffff16905081600560006101000a81548173ffffffffffffffffffffffffffffffffffffffff021916908373ffffffffffffffffffffffffffffffffffffffff1602179055508173ffffffffffffffffffffffffffffffffffffffff168173ffffffffffffffffffffffffffffffffffffffff167f8be0079c531659141344cd1fd0a4f28419497f9722a3daafe3b4186f6b6457e060405160405180910390a35050565b60006012905090565b600073ffffffffffffffffffffffffffffffffffffffff168273ffffffffffffffffffffffffffffffffffffffff160361029f5760006040517fec442f05000000000000000000000000000000000000000000000000000000008152600401610296919061083d565b60405180910390fd5b6102b1600083836102b560201b60201c565b5050565b600073ffffffffffffffffffffffffffffffffffffffff168373ffffffffffffffffffffffffffffffffffffffff16036103075780600260008282546102fb9190610a54565b925050819055506103da565b60008060008573ffffffffffffffffffffffffffffffffffffffff1673ffffffffffffffffffffffffffffffffffffffff16815260200190815260200160002054905081811015610393578381836040517fe450d38c00000000000000000000000000000000000000000000000000000000815260040161038a93929190610a97565b60405180910390fd5b8181036000808673ffffffffffffffffffffffffffffffffffffffff1673ffffffffffffffffffffffffffffffffffffffff16815260200190815260200160002081905550505b600073ffffffffffffffffffffffffffffffffffffffff168273ffffffffffffffffffffffffffffffffffffffff16036104235780600260008282540392505081905550610470565b806000808473ffffffffffffffffffffffffffffffffffffffff1673ffffffffffffffffffffffffffffffffffffffff168152602001908152602001600020600082825401925050819055505b8173ffffffffffffffffffffffffffffffffffffffff168373ffffffffffffffffffffffffffffffffffffffff167fddf252ad1be2c89b69c2b068fc378daa952ba7f163c4a11628f55a4df523b3ef836040516104cd9190610ace565b60405180910390a3505050565b600081519050919050565b7f4e487b7100000000000000000000000000000000000000000000000000000000600052604160045260246000fd5b7f4e487b7100000000000000000000000000000000000000000000000000000000600052602260045260246000fd5b6000600282049050600182168061055b57607f821691505b60208210810361056e5761056d610514565b5b50919050565b60008190508160005260206000209050919050565b60006020601f8301049050919050565b600082821b905092915050565b6000600883026105d67fffffffffffffffffffffffffffffffffffffffffffffffffffffffffffffffff82610599565b6105e08683610599565b95508019841693508086168417925050509392505050565b6000819050919050565b6000819050919050565b600061062761062261061d846105f8565b610602565b6105f8565b9050919050565b6000819050919050565b6106418361060c565b61065561064d8261062e565b8484546105a6565b825550505050565b600090565b61066a61065d565b610675818484610638565b505050565b5b818110156106995761068e600082610662565b60018101905061067b565b5050565b601f8211156106de576106af81610574565b6106b884610589565b810160208510156106c7578190505b6106db6106d385610589565b83018261067a565b50505b505050565b600082821c905092915050565b6000610701600019846008026106e3565b1980831691505092915050565b600061071a83836106f0565b9150826002028217905092915050565b610733826104da565b67ffffffffffffffff81111561074c5761074b6104e5565b5b6107568254610543565b61076182828561069d565b600060209050601f8311600181146107945760008415610782578287015190505b61078c858261070e565b8655506107f4565b601f1984166107a286610574565b60005b828110156107ca578489015182556001820191506020850194506020810190506107a5565b868310156107e757848901516107e3601f8916826106f0565b8355505b6001600288020188555050505b505050505050565b600073ffffffffffffffffffffffffffffffffffffffff82169050919050565b6000610827826107fc565b9050919050565b6108378161081c565b82525050565b6000602082019050610852600083018461082e565b92915050565b7f4e487b7100000000000000000000000000000000000000000000000000000000600052601160045260246000fd5b60008160011c9050919050565b6000808291508390505b60018511156108de578086048111156108ba576108b9610858565b5b60018516156108c95780820291505b80810290506108d785610887565b945061089e565b94509492505050565b6000826108f757600190506109b3565b8161090557600090506109b3565b816001811461091b576002811461092557610954565b60019150506109b3565b60ff84111561093757610936610858565b5b8360020a91508482111561094e5761094d610858565b5b506109b3565b5060208310610133831016604e8410600b84101617156109895782820a90508381111561098457610983610858565b5b6109b3565b6109968484846001610894565b925090508184048111156109ad576109ac610858565b5b81810290505b9392505050565b600060ff82169050919050565b60006109d2826105f8565b91506109dd836109ba565b9250610a0a7fffffffffffffffffffffffffffffffffffffffffffffffffffffffffffffffff84846108e7565b905092915050565b6000610a1d826105f8565b9150610a28836105f8565b9250828202610a36816105f8565b91508282048414831517610a4d57610a4c610858565b5b5092915050565b6000610a5f826105f8565b9150610a6a836105f8565b9250828201905080821115610a8257610a81610858565b5b92915050565b610a91816105f8565b82525050565b6000606082019050610aac600083018661082e565b610ab96020830185610a88565b610ac66040830184610a88565b949350505050565b6000602082019050610ae36000830184610a88565b92915050565b6118e680610af86000396000f3fe6080604052600436106100e85760003560e01c8063715018a61161008a578063a9059cbb11610059578063a9059cbb146102d9578063dd62ed3e14610316578063e086e5ec14610353578063f2fde38b1461036a576100e8565b8063715018a614610241578063833b9499146102585780638da5cb5b1461028357806395d89b41146102ae576100e8565b806323b872dd116100c657806323b872dd14610180578063313ce567146101bd5780633610724e146101e857806370a0823114610204576100e8565b806306fdde03146100ed578063095ea7b31461011857806318160ddd14610155575b600080fd5b3480156100f957600080fd5b50610102610393565b60405161010f9190611123565b60405180910390f35b34801561012457600080fd5b5061013f600480360381019061013a91906111de565b610425565b60405161014c9190611239565b60405180910390f35b34801561016157600080fd5b5061016a610448565b6040516101779190611263565b60405180910390f35b34801561018c57600080fd5b506101a760048036038101906101a2919061127e565b610452565b6040516101b49190611239565b60405180910390f35b3480156101c957600080fd5b506101d2610481565b6040516101df91906112ed565b60405180910390f35b61020260048036038101906101fd9190611308565b61048a565b005b34801561021057600080fd5b5061022b60048036038101906102269190611335565b610614565b6040516102389190611263565b60405180910390f35b34801561024d57600080fd5b5061025661065c565b005b34801561026457600080fd5b5061026d610670565b60405161027a9190611263565b60405180910390f35b34801561028f57600080fd5b5061029861067b565b6040516102a59190611371565b60405180910390f35b3480156102ba57600080fd5b506102c36106a5565b6040516102d09190611123565b60405180910390f35b3480156102e557600080fd5b5061030060048036038101906102fb91906111de565b610737565b60405161030d9190611239565b60405180910390f35b34801561032257600080fd5b5061033d6004803603810190610338919061138c565b61075a565b60405161034a9190611263565b60405180910390f35b34801561035f57600080fd5b506103686107e1565b005b34801561037657600080fd5b50610391600480360381019061038c9190611335565b61089f565b005b6060600380546103a2906113fb565b80601f01602080910402602001604051908101604052809291908181526020018280546103ce906113fb565b801561041b5780601f106103f05761010080835404028352916020019161041b565b820191906000526020600020905b8154815290600101906020018083116103fe57829003601f168201915b5050505050905090565b600080610430610925565b905061043d81858561092d565b600191505092915050565b6000600254905090565b60008061045d610925565b905061046a85828561093f565b6104758585856109d4565b60019150509392505050565b60006012905090565b600081116104cd576040517f08c379a00000000000000000000000000000000000000000000000000000000081526004016104c490611478565b60405180910390fd5b60008166038d7ea4c680006104e291906114c7565b905080341015610527576040517f08c379a000000000000000000000000000000000000000000000000000000000815260040161051e90611555565b60405180910390fd5b61054f33610533610481565b600a61053f91906116a8565b8461054a91906114c7565b610ac8565b803411156106105760003373ffffffffffffffffffffffffffffffffffffffff16823461057c91906116f3565b60405161058890611758565b60006040518083038185875af1925050503d80600081146105c5576040519150601f19603f3d011682016040523d82523d6000602084013e6105ca565b606091505b505090508061060e576040517f08c379a0000000000000000000000000000000000000000000000000000000008152600401610605906117b9565b60405180910390fd5b505b5050565b60008060008373ffffffffffffffffffffffffffffffffffffffff1673ffffffffffffffffffffffffffffffffffffffff168152602001908152602001600020549050919050565b610664610b4a565b61066e6000610bd1565b565b66038d7ea4c6800081565b6000600560009054906101000a900473ffffffffffffffffffffffffffffffffffffffff16905090565b6060600480546106b4906113fb565b80601f01602080910402602001604051908101604052809291908181526020018280546106e0906113fb565b801561072d5780601f106107025761010080835404028352916020019161072d565b820191906000526020600020905b81548152906001019060200180831161071057829003601f168201915b5050505050905090565b600080610742610925565b905061074f8185856109d4565b600191505092915050565b6000600160008473ffffffffffffffffffffffffffffffffffffffff1673ffffffffffffffffffffffffffffffffffffffff16815260200190815260200160002060008373ffffffffffffffffffffffffffffffffffffffff1673ffffffffffffffffffffffffffffffffffffffff16815260200190815260200160002054905092915050565b6107e9610b4a565b60006107f361067b565b73ffffffffffffffffffffffffffffffffffffffff164760405161081690611758565b60006040518083038185875af1925050503d8060008114610853576040519150601f19603f3d011682016040523d82523d6000602084013e610858565b606091505b505090508061089c576040517f08c379a000000000000000000000000000000000000000000000000000000000815260040161089390611825565b60405180910390fd5b50565b6108a7610b4a565b600073ffffffffffffffffffffffffffffffffffffffff168173ffffffffffffffffffffffffffffffffffffffff16036109195760006040517f1e4fbdf70000000000000000000000000000000000000000000000000000000081526004016109109190611371565b60405180910390fd5b61092281610bd1565b50565b600033905090565b61093a8383836001610c97565b505050565b600061094b848461075a565b90507fffffffffffffffffffffffffffffffffffffffffffffffffffffffffffffffff8110156109ce57818110156109be578281836040517ffb8f41b20000000000000000000000000000000000000000000000000000000081526004016109b593929190611845565b60405180910390fd5b6109cd84848484036000610c97565b5b50505050565b600073ffffffffffffffffffffffffffffffffffffffff168373ffffffffffffffffffffffffffffffffffffffff1603610a465760006040517f96c6fd1e000000000000000000000000000000000000000000000000000000008152600401610a3d9190611371565b60405180910390fd5b600073ffffffffffffffffffffffffffffffffffffffff168273ffffffffffffffffffffffffffffffffffffffff1603610ab85760006040517fec442f05000000000000000000000000000000000000000000000000000000008152600401610aaf9190611371565b60405180910390fd5b610ac3838383610e6e565b505050565b600073ffffffffffffffffffffffffffffffffffffffff168273ffffffffffffffffffffffffffffffffffffffff1603610b3a5760006040517fec442f05000000000000000000000000000000000000000000000000000000008152600401610b319190611371565b60405180910390fd5b610b4660008383610e6e565b5050565b610b52610925565b73ffffffffffffffffffffffffffffffffffffffff16610b7061067b565b73ffffffffffffffffffffffffffffffffffffffff1614610bcf57610b93610925565b6040517f118cdaa7000000000000000000000000000000000000000000000000000000008152600401610bc69190611371565b60405180910390fd5b565b6000600560009054906101000a900473ffffffffffffffffffffffffffffffffffffffff16905081600560006101000a81548173ffffffffffffffffffffffffffffffffffffffff021916908373ffffffffffffffffffffffffffffffffffffffff1602179055508173ffffffffffffffffffffffffffffffffffffffff168173ffffffffffffffffffffffffffffffffffffffff167f8be0079c531659141344cd1fd0a4f28419497f9722a3daafe3b4186f6b6457e060405160405180910390a35050565b600073ffffffffffffffffffffffffffffffffffffffff168473ffffffffffffffffffffffffffffffffffffffff1603610d095760006040517fe602df05000000000000000000000000000000000000000000000000000000008152600401610d009190611371565b60405180910390fd5b600073ffffffffffffffffffffffffffffffffffffffff168373ffffffffffffffffffffffffffffffffffffffff1603610d7b5760006040517f94280d62000000000000000000000000000000000000000000000000000000008152600401610d729190611371565b60405180910390fd5b81600160008673ffffffffffffffffffffffffffffffffffffffff1673ffffffffffffffffffffffffffffffffffffffff16815260200190815260200160002060008573ffffffffffffffffffffffffffffffffffffffff1673ffffffffffffffffffffffffffffffffffffffff168152602001908152602001600020819055508015610e68578273ffffffffffffffffffffffffffffffffffffffff168473ffffffffffffffffffffffffffffffffffffffff167f8c5be1e5ebec7d5bd14f71427d1e84f3dd0314c0f7b2291e5b200ac8c7c3b92584604051610e5f9190611263565b60405180910390a35b50505050565b600073ffffffffffffffffffffffffffffffffffffffff168373ffffffffffffffffffffffffffffffffffffffff1603610ec0578060026000828254610eb4919061187c565b92505081905550610f93565b60008060008573ffffffffffffffffffffffffffffffffffffffff1673ffffffffffffffffffffffffffffffffffffffff16815260200190815260200160002054905081811015610f4c578381836040517fe450d38c000000000000000000000000000000000000000000000000000000008152600401610f4393929190611845565b60405180910390fd5b8181036000808673ffffffffffffffffffffffffffffffffffffffff1673ffffffffffffffffffffffffffffffffffffffff16815260200190815260200160002081905550505b600073ffffffffffffffffffffffffffffffffffffffff168273ffffffffffffffffffffffffffffffffffffffff1603610fdc5780600260008282540392505081905550611029565b806000808473ffffffffffffffffffffffffffffffffffffffff1673ffffffffffffffffffffffffffffffffffffffff168152602001908152602001600020600082825401925050819055505b8173ffffffffffffffffffffffffffffffffffffffff168373ffffffffffffffffffffffffffffffffffffffff167fddf252ad1be2c89b69c2b068fc378daa952ba7f163c4a11628f55a4df523b3ef836040516110869190611263565b60405180910390a3505050565b600081519050919050565b600082825260208201905092915050565b60005b838110156110cd5780820151818401526020810190506110b2565b60008484015250505050565b6000601f19601f8301169050919050565b60006110f582611093565b6110ff818561109e565b935061110f8185602086016110af565b611118816110d9565b840191505092915050565b6000602082019050818103600083015261113d81846110ea565b905092915050565b600080fd5b600073ffffffffffffffffffffffffffffffffffffffff82169050919050565b60006111758261114a565b9050919050565b6111858161116a565b811461119057600080fd5b50565b6000813590506111a28161117c565b92915050565b6000819050919050565b6111bb816111a8565b81146111c657600080fd5b50565b6000813590506111d8816111b2565b92915050565b600080604083850312156111f5576111f4611145565b5b600061120385828601611193565b9250506020611214858286016111c9565b9150509250929050565b60008115159050919050565b6112338161121e565b82525050565b600060208201905061124e600083018461122a565b92915050565b61125d816111a8565b82525050565b60006020820190506112786000830184611254565b92915050565b60008060006060848603121561129757611296611145565b5b60006112a586828701611193565b93505060206112b686828701611193565b92505060406112c7868287016111c9565b9150509250925092565b600060ff82169050919050565b6112e7816112d1565b82525050565b600060208201905061130260008301846112de565b92915050565b60006020828403121561131e5761131d611145565b5b600061132c848285016111c9565b91505092915050565b60006020828403121561134b5761134a611145565b5b600061135984828501611193565b91505092915050565b61136b8161116a565b82525050565b60006020820190506113866000830184611362565b92915050565b600080604083850312156113a3576113a2611145565b5b60006113b185828601611193565b92505060206113c285828601611193565b9150509250929050565b7f4e487b7100000000000000000000000000000000000000000000000000000000600052602260045260246000fd5b6000600282049050600182168061141357607f821691505b602082108103611426576114256113cc565b5b50919050565b7f416d6f756e74206d7573742062652067726561746572207468616e2030000000600082015250565b6000611462601d8361109e565b915061146d8261142c565b602082019050919050565b6000602082019050818103600083015261149181611455565b9050919050565b7f4e487b7100000000000000000000000000000000000000000000000000000000600052601160045260246000fd5b60006114d2826111a8565b91506114dd836111a8565b92508282026114eb816111a8565b9150828204841483151761150257611501611498565b5b5092915050565b7f4e6f7420656e6f756768204554482073656e7400000000000000000000000000600082015250565b600061153f60138361109e565b915061154a82611509565b602082019050919050565b6000602082019050818103600083015261156e81611532565b9050919050565b60008160011c9050919050565b6000808291508390505b60018511156115cc578086048111156115a8576115a7611498565b5b60018516156115b75780820291505b80810290506115c585611575565b945061158c565b94509492505050565b6000826115e557600190506116a1565b816115f357600090506116a1565b8160018114611609576002811461161357611642565b60019150506116a1565b60ff84111561162557611624611498565b5b8360020a91508482111561163c5761163b611498565b5b506116a1565b5060208310610133831016604e8410600b84101617156116775782820a90508381111561167257611671611498565b5b6116a1565b6116848484846001611582565b9250905081840481111561169b5761169a611498565b5b81810290505b9392505050565b60006116b3826111a8565b91506116be836112d1565b92506116eb7fffffffffffffffffffffffffffffffffffffffffffffffffffffffffffffffff84846115d5565b905092915050565b60006116fe826111a8565b9150611709836111a8565b925082820390508181111561172157611720611498565b5b92915050565b600081905092915050565b50565b6000611742600083611727565b915061174d82611732565b600082019050919050565b600061176382611735565b9150819050919050565b7f526566756e64206661696c656400000000000000000000000000000000000000600082015250565b60006117a3600d8361109e565b91506117ae8261176d565b602082019050919050565b600060208201905081810360008301526117d281611796565b9050919050565b7f5769746864726177206661696c65640000000000000000000000000000000000600082015250565b600061180f600f8361109e565b915061181a826117d9565b602082019050919050565b6000602082019050818103600083015261183e81611802565b9050919050565b600060608201905061185a6000830186611362565b6118676020830185611254565b6118746040830184611254565b949350505050565b6000611887826111a8565b9150611892836111a8565b92508282019050808211156118aa576118a9611498565b5b9291505056fea2646970667358221220dac9c7e6667ff3af42ff45bc4084aabe48d509e86a909abf3996e65f9bc189db64736f6c634300081c0033",
  "linkReferences": {},
  "deployedLinkReferences": {}
}